{"contractName":"TrueGrailToken","abi":[{"constant":true,"inputs":[],"name":"totalSupply","outputs":[{"name":"","type":"uint256"}],"payable":false,"stateMutability":"view","type":"function","signature":"0x18160ddd"},{"constant":true,"inputs":[{"name":"","type":"uint256"}],"name":"ownerships","outputs":[{"name":"","type":"address"}],"payable":false,"stateMutability":"view","type":"function","signature":"0x3acefa20"},{"constant":true,"inputs":[{"name":"","type":"uint256"}],"name":"factories","outputs":[{"name":"","type":"address"}],"payable":false,"stateMutability":"view","type":"function","signature":"0x672383c4"},{"constant":true,"inputs":[{"name":"","type":"uint256"}],"name":"tokenHashInfo","outputs":[{"name":"","type":"string"}],"payable":false,"stateMutability":"view","type":"function","signature":"0x6c89d6f4"},{"inputs":[{"name":"_name","type":"string"},{"name":"_symbol","type":"string"}],"payable":false,"stateMutability":"nonpayable","type":"constructor","signature":"constructor"},{"anonymous":false,"inputs":[{"indexed":true,"name":"_from","type":"address"},{"indexed":true,"name":"_to","type":"address"},{"indexed":true,"name":"_tokenId","type":"uint256"},{"indexed":false,"name":"newHash","type":"string"}],"name":"Transfer","type":"event","signature":"0xcd6e659e4c2e75c3bfe47fecaccf39aeb368116a0ee52afb532e07f6cba6c0d1"},{"anonymous":false,"inputs":[{"indexed":true,"name":"_owner","type":"address"},{"indexed":true,"name":"_approved","type":"address"},{"indexed":false,"name":"_tokenId","type":"uint256"}],"name":"Approval","type":"event","signature":"0x8c5be1e5ebec7d5bd14f71427d1e84f3dd0314c0f7b2291e5b200ac8c7c3b925"},{"anonymous":false,"inputs":[{"indexed":true,"name":"_issuer","type":"address"},{"indexed":true,"name":"_tokenId","type":"uint256"},{"indexed":false,"name":"_hashInfo","type":"string"}],"name":"Issue","type":"event","signature":"0x9a27b65b834a85153a0161940629613dcded325ecd78845ba99e2ec15d53b77b"},{"constant":true,"inputs":[],"name":"getFactories","outputs":[{"name":"","type":"address[]"}],"payable":false,"stateMutability":"view","type":"function","signature":"0x7e6cbb6a"},{"constant":false,"inputs":[{"name":"_account","type":"address"}],"name":"addFactory","outputs":[],"payable":false,"stateMutability":"nonpayable","type":"function","signature":"0x29ce1ec5"},{"constant":false,"inputs":[{"name":"_tokenId","type":"uint256"},{"name":"_hashInfo","type":"string"}],"name":"issueToken","outputs":[],"payable":false,"stateMutability":"nonpayable","type":"function","signature":"0x1371a5b3"},{"constant":true,"inputs":[{"name":"_tokenId","type":"uint256"}],"name":"ownerOf","outputs":[{"name":"_owner","type":"address"}],"payable":false,"stateMutability":"view","type":"function","signature":"0x6352211e"},{"constant":false,"inputs":[{"name":"_to","type":"address"},{"name":"_tokenId","type":"uint256"},{"name":"newHash","type":"string"}],"name":"transfer","outputs":[],"payable":false,"stateMutability":"nonpayable","type":"function","signature":"0x56b8c724"},{"constant":true,"inputs":[{"name":"_tokenId","type":"uint256"}],"name":"tokenMetadata","outputs":[{"name":"infoHash","type":"string"}],"payable":false,"stateMutability":"view","type":"function","signature":"0x6914db60"}],"bytecode":"0x60806040523480156200001157600080fd5b506040516200117838038062001178833981018060405260408110156200003757600080fd5b8101908080516401000000008111156200005057600080fd5b828101905060208101848111156200006757600080fd5b81518560018202830111640100000000821117156200008557600080fd5b50509291906020018051640100000000811115620000a257600080fd5b82810190506020810184811115620000b957600080fd5b8151856001820283011164010000000082111715620000d757600080fd5b505092919050505033600260006101000a81548173ffffffffffffffffffffffffffffffffffffffff021916908373ffffffffffffffffffffffffffffffffffffffff1602179055508160009080519060200190620001389291906200015a565b508060019080519060200190620001519291906200015a565b50505062000209565b828054600181600116156101000203166002900490600052602060002090601f016020900481019282601f106200019d57805160ff1916838001178555620001ce565b82800160010185558215620001ce579182015b82811115620001cd578251825591602001919060010190620001b0565b5b509050620001dd9190620001e1565b5090565b6200020691905b8082111562000202576000816000905550600101620001e8565b5090565b90565b610f5f80620002196000396000f3fe6080604052600436106100a4576000357c0100000000000000000000000000000000000000000000000000000000900463ffffffff1680631371a5b3146100a957806318160ddd1461017b57806329ce1ec5146101a65780633acefa20146101f757806356b8c724146102725780636352211e14610364578063672383c4146103df5780636914db601461045a5780636c89d6f41461050e5780637e6cbb6a146105c2575b600080fd5b3480156100b557600080fd5b50610179600480360360408110156100cc57600080fd5b8101908080359060200190929190803590602001906401000000008111156100f357600080fd5b82018360208201111561010557600080fd5b8035906020019184600183028401116401000000008311171561012757600080fd5b91908080601f016020809104026020016040519081016040528093929190818152602001838380828437600081840152601f19601f82011690508083019250505050505050919291929050505061062e565b005b34801561018757600080fd5b50610190610895565b6040518082815260200191505060405180910390f35b3480156101b257600080fd5b506101f5600480360360208110156101c957600080fd5b81019080803573ffffffffffffffffffffffffffffffffffffffff16906020019092919050505061089b565b005b34801561020357600080fd5b506102306004803603602081101561021a57600080fd5b81019080803590602001909291905050506109cb565b604051808273ffffffffffffffffffffffffffffffffffffffff1673ffffffffffffffffffffffffffffffffffffffff16815260200191505060405180910390f35b34801561027e57600080fd5b506103626004803603606081101561029557600080fd5b81019080803573ffffffffffffffffffffffffffffffffffffffff16906020019092919080359060200190929190803590602001906401000000008111156102dc57600080fd5b8201836020820111156102ee57600080fd5b8035906020019184600183028401116401000000008311171561031057600080fd5b91908080601f016020809104026020016040519081016040528093929190818152602001838380828437600081840152601f19601f8201169050808301925050505050505091929192905050506109fe565b005b34801561037057600080fd5b5061039d6004803603602081101561038757600080fd5b8101908080359060200190929190505050610c20565b604051808273ffffffffffffffffffffffffffffffffffffffff1673ffffffffffffffffffffffffffffffffffffffff16815260200191505060405180910390f35b3480156103eb57600080fd5b506104186004803603602081101561040257600080fd5b8101908080359060200190929190505050610c5d565b604051808273ffffffffffffffffffffffffffffffffffffffff1673ffffffffffffffffffffffffffffffffffffffff16815260200191505060405180910390f35b34801561046657600080fd5b506104936004803603602081101561047d57600080fd5b8101908080359060200190929190505050610c9b565b6040518080602001828103825283818151815260200191508051906020019080838360005b838110156104d35780820151818401526020810190506104b8565b50505050905090810190601f1680156105005780820380516001836020036101000a031916815260200191505b509250505060405180910390f35b34801561051a57600080fd5b506105476004803603602081101561053157600080fd5b8101908080359060200190929190505050610d50565b6040518080602001828103825283818151815260200191508051906020019080838360005b8381101561058757808201518184015260208101905061056c565b50505050905090810190601f1680156105b45780820380516001836020036101000a031916815260200191505b509250505060405180910390f35b3480156105ce57600080fd5b506105d7610e00565b6040518080602001828103825283818151815260200191508051906020019060200280838360005b8381101561061a5780820151818401526020810190506105ff565b505050509050019250505060405180910390f35b6006600080905060008090505b82805490508110156106c557828181548110151561065557fe5b9060005260206000200160009054906101000a900473ffffffffffffffffffffffffffffffffffffffff1673ffffffffffffffffffffffffffffffffffffffff163373ffffffffffffffffffffffffffffffffffffffff1614156106b857600191505b808060010191505061063b565b50801515610761576040517f08c379a000000000000000000000000000000000000000000000000000000000815260040180806020018281038252602c8152602001807f53656e646572206973206e6f7420616c6c6f77656420746f20646f207468697381526020017f207472616e73616374696f6e000000000000000000000000000000000000000081525060400191505060405180910390fd5b82600560008681526020019081526020016000209080519060200190610788929190610e8e565b50336004600086815260200190815260200160002060006101000a81548173ffffffffffffffffffffffffffffffffffffffff021916908373ffffffffffffffffffffffffffffffffffffffff160217905550833373ffffffffffffffffffffffffffffffffffffffff167f9a27b65b834a85153a0161940629613dcded325ecd78845ba99e2ec15d53b77b856040518080602001828103825283818151815260200191508051906020019080838360005b8381101561085557808201518184015260208101905061083a565b50505050905090810190601f1680156108825780820380516001836020036101000a031916815260200191505b509250505060405180910390a350505050565b60035481565b600260009054906101000a900473ffffffffffffffffffffffffffffffffffffffff168073ffffffffffffffffffffffffffffffffffffffff163373ffffffffffffffffffffffffffffffffffffffff16141515610961576040517f08c379a00000000000000000000000000000000000000000000000000000000081526004018080602001828103825260188152602001807f53656e646572206973206e6f7420617574686f72697a6564000000000000000081525060200191505060405180910390fd5b60068290806001815401808255809150509060018203906000526020600020016000909192909190916101000a81548173ffffffffffffffffffffffffffffffffffffffff021916908373ffffffffffffffffffffffffffffffffffffffff160217905550505050565b60046020528060005260406000206000915054906101000a900473ffffffffffffffffffffffffffffffffffffffff1681565b6004600083815260200190815260200160002060009054906101000a900473ffffffffffffffffffffffffffffffffffffffff168073ffffffffffffffffffffffffffffffffffffffff163373ffffffffffffffffffffffffffffffffffffffff16141515610ad5576040517f08c379a00000000000000000000000000000000000000000000000000000000081526004018080602001828103825260188152602001807f53656e646572206973206e6f7420617574686f72697a6564000000000000000081525060200191505060405180910390fd5b836004600085815260200190815260200160002060006101000a81548173ffffffffffffffffffffffffffffffffffffffff021916908373ffffffffffffffffffffffffffffffffffffffff16021790555081600560008581526020019081526020016000209080519060200190610b4e929190610e8e565b50828473ffffffffffffffffffffffffffffffffffffffff163373ffffffffffffffffffffffffffffffffffffffff167fcd6e659e4c2e75c3bfe47fecaccf39aeb368116a0ee52afb532e07f6cba6c0d1856040518080602001828103825283818151815260200191508051906020019080838360005b83811015610be0578082015181840152602081019050610bc5565b50505050905090810190601f168015610c0d5780820380516001836020036101000a031916815260200191505b509250505060405180910390a450505050565b60006004600083815260200190815260200160002060009054906101000a900473ffffffffffffffffffffffffffffffffffffffff169050919050565b600681815481101515610c6c57fe5b906000526020600020016000915054906101000a900473ffffffffffffffffffffffffffffffffffffffff1681565b6060600560008381526020019081526020016000208054600181600116156101000203166002900480601f016020809104026020016040519081016040528092919081815260200182805460018160011615610100020316600290048015610d445780601f10610d1957610100808354040283529160200191610d44565b820191906000526020600020905b815481529060010190602001808311610d2757829003601f168201915b50505050509050919050565b60056020528060005260406000206000915090508054600181600116156101000203166002900480601f016020809104026020016040519081016040528092919081815260200182805460018160011615610100020316600290048015610df85780601f10610dcd57610100808354040283529160200191610df8565b820191906000526020600020905b815481529060010190602001808311610ddb57829003601f168201915b505050505081565b60606006805480602002602001604051908101604052809291908181526020018280548015610e8457602002820191906000526020600020905b8160009054906101000a900473ffffffffffffffffffffffffffffffffffffffff1673ffffffffffffffffffffffffffffffffffffffff1681526020019060010190808311610e3a575b5050505050905090565b828054600181600116156101000203166002900490600052602060002090601f016020900481019282601f10610ecf57805160ff1916838001178555610efd565b82800160010185558215610efd579182015b82811115610efc578251825591602001919060010190610ee1565b5b509050610f0a9190610f0e565b5090565b610f3091905b80821115610f2c576000816000905550600101610f14565b5090565b9056fea165627a7a723058208468ff8c172e768704e406f07cfe77a86f50e295b34b0ff3edeec069f7851cd30029","source":"pragma solidity >=0.4.20;\n\ncontract TrueGrailToken {\n\n    string private name;\n    string private symbol;\n    address private creator;\n    uint256 public totalSupply;\n    \n    // ERC20 compatible functions\n    // key: token id, value: address of the owner\n    mapping(uint256 => address) public ownerships;\n    // key: token id, value: group of adresses that are allowed to use the token \n\n    mapping (uint256 => string) public tokenHashInfo;\n    // mapping(address => uint256) balances;\n\n    address[] public factories;\n\n    // getter\n    function getFactories() public view returns (address[] memory) {\n        return factories;\n    }\n\n    // modifier\n\n    modifier onlyByUser(address _account) {\n      require(msg.sender == _account, \"Sender is not authorized\");\n      _;\n    }\n\n   modifier onlyByGroup(address[] storage _group) {\n       bool isAllowed = false;\n       for (uint i=0; i < _group.length; i++) {\n            if (msg.sender == _group[i]) {\n                isAllowed = true;\n            }\n       }\n       require(isAllowed, \"Sender is not allowed to do this transaction\");\n       _;\n   }\n   \n\n    constructor (string memory _name, string memory _symbol) public {\n        creator = msg.sender;\n        name = _name;\n        symbol = _symbol;\n    }\n\n    function addFactory(address _account) public onlyByUser(creator) {\n        factories.push(_account);\n    }\n\n    function issueToken(uint256 _tokenId, string memory _hashInfo) public onlyByGroup(factories) {\n        tokenHashInfo[_tokenId] = _hashInfo;\n        ownerships[_tokenId] = msg.sender;\n\n        emit Issue(msg.sender, _tokenId, _hashInfo);\n    }\n\n    // function balanceOf(address _owner) public view returns (uint balance) {\n    //     return balances[_owner];\n    // }\n\n    // Functions that define ownership\n    function ownerOf(uint256 _tokenId) public view returns (address _owner) {\n        return ownerships[_tokenId];\n    }\n\n    // function approve(address _to, uint256 _tokenId) public onlyByUser(ownerships[_tokenId]) {\n    //     alloweds[_tokenId].push(_to);\n    // }\n\n    function transfer(address _to, uint256 _tokenId, string memory newHash) public onlyByUser(ownerships[_tokenId]) {\n        ownerships[_tokenId] = _to;\n        tokenHashInfo[_tokenId] = newHash;\n        emit Transfer(msg.sender, _to, _tokenId, newHash);\n    }\n\n    // function tokenOfOwnerByIndex(address _owner, uint256 _index) public view returns (uint tokenId);\n    // Token metadata\n    function tokenMetadata(uint256 _tokenId) public view returns (string memory infoHash) {\n        return tokenHashInfo[_tokenId];\n    }\n    // Events\n    event Transfer(address indexed _from, address indexed _to, uint256 indexed _tokenId, string newHash);\n    event Approval(address indexed _owner, address indexed _approved, uint256 _tokenId);\n    event Issue(address indexed _issuer, uint256 indexed _tokenId, string _hashInfo);\n    \n}","sourcePath":"/Users/phat.pham/Documents/truegrail-token/contracts/TrueGrailToken.sol","compiler":{"name":"solc","version":"0.5.0+commit.1d4f565a.Emscripten.clang"},"schemaVersion":"3.0.2","updatedAt":"2019-05-04T08:40:50.508Z","devdoc":{"methods":{}},"userdoc":{"methods":{}}}